:020000040800F2
:1000000090020020D90000081D0400081D0300080C
:1000100000000000000000000000000000000000E0
:10002000000000000000000000000000650700085C
:100030000000000000000000990400081D090008ED
:10004000EB00000800000000EB000008EB000008D7
:10005000EB000008EB000008EB000008EB000008D4
:10006000EB000008EB000008EB000008EB000008C4
:10007000EB000008EB000008EB000008EB000008B4
:1000800000000000EB00000800000000000000007D
:1000900000000000EB000008EB000008EB00000887
:1000A00000000000EB00000800000000EB0000086A
:1000B0000000000000000000000000000000000040
:1000C0000448854600F03EF8004800470D1100083E
:1000D000C046C046900200200448804704480047BC
:1000E000FEE7FEE7FEE7FEE7FEE7FEE7450900085C
:1000F000C100000830B50B46014600202022012433
:1001000009E00D46D5409D4205D31D469540491B4B
:100110002546954040191546521E002DF1DC30BD94
:1001200003460B439B0703D009E008C9121F08C010
:10013000042AFAD203E00B780370401C491C521EBB
:10014000F9D27047064C0125064E05E0E36807CC5E
:100150002B430C3C98471034B442F7D3FFF7B4FF5D
:10016000281800084818000801B5074900980860D9
:1001700006480069012108430449086100BF02489C
:1001800000680028FBD108BD1800002000E000E056
:1001900031B57D21C9000E480068FFF7ABFF054669
:1001A00000F0A0FB002408E000BF0A48006901211C
:1001B000090408400028F8D0641C00988442F3D356
:1001C00004480069400840000249086138BD000049
:1001D0000000002000E000E0F0B500220023002431
:1001E00000BF3DE0012595402B460D681D402C4683
:1001F0009C4234D10D79012D02D00D79022D16D1FA
:10020000856857000326BE40B54385604D7956008A
:10021000B540866835438560456801269640B543FC
:10022000456045688E799640B6B2354345600568AD
:1002300057000326BE40B54305600D795600B54012
:10024000066835430560C56857000326BE40B543C0
:10025000C560CD795600B540C6683543C560521CAF
:10026000102ABFD30D7A002D04D1056B0E683543DB
:10027000056303E0056B0E68B5430563F0BDF0B59B
:10028000002300244D07EE0E1546B5402B46CD1039
:10029000AE0005462035AD594E07F70E0F26BE407D
:1002A000B543CE10B60007462037BD51CD10AE0085
:1002B0003D46AD591D432C46CD10AD003E46745110
:1002C000F0BD816270478161704700000EB5012169
:1002D000480700F07FF90121080500F06BF90120C3
:1002E00000F02EFA00BF0B48406A022108400028A7
:1002F000F9D001216846017100218171012141710C
:100300000021C1710220009069460348FFF764FF95
:100310000EBD000000100240000C004800BFFEE7C8
:1003200070B504460D460026002D01D00820064376
:1003300031460A48FFF7C5FF7D21C90061430846E1
:10034000FFF726FF31460548FFF7BDFF7D21C900B5
:1003500061430846FFF71CFF70BD0000000C004819
:100360000EB50121080500F025F90C2000900121AF
:1003700068460171417169460348FFF72DFF0C2162
:100380000148FFF7A0FF0EBD000C004870B5044601
:100390000D460026002D01D00420064331460A48B0
:1003A000FFF78FFF7D21C90061430846FFF7F0FE8C
:1003B00031460548FFF787FF7D21C90061430846A4
:1003C000FFF7E6FE70BD0000000C00480EB50121ED
:1003D000C80400F0EFF81820009001216846017170
:1003E00041710021817169460148FFF7F5FE0EBD9C
:1003F0000008004810B508210348FFF762FF1021EC
:100400000148FFF760FF10BD0008004810B5182133
:100410000148FFF756FF10BD000800487047000074
:1004200010B5002819DA1A4A03071B0F083B9B086E
:100430009B00D2588307DC0EFF23A3409A434B074F
:100440001B0E8407E40EA3401A43114B0407240F2C
:10045000083CA408A4001A5118E00E4A03231B020A
:10046000D21883089B00D2588307DC0EFF23A340D9
:100470009A434B071B0E8407E40EA3401A43054B17
:10048000032424021B198408A4001A5110BD000083
:100490001CED00E000E100E070470000F0B58FB017
:1004A0002822184905A8FFF73BFE17A103C90491AC
:1004B000039017A103C9029101900A2700241DE0AF
:1004C000002508E003A9095D490005AA505A00F07B
:1004D000E9F9681C85B201A90E5DF10F891949106F
:1004E00003AA125D520005AB9A5A51430846394699
:1004F000FFF700FEA842E5D8601C84B2052CDFD3CC
:100500000FB0F0BD841700080805010212000000BA
:100510000404040808000000F0B593B028221C4928
:1005200009A8FFF7FDFD1BA30FCB05AC0FC41DA34E
:100530005A6819689868DB680493029201910390E5
:100540000A27002420E0002508E005A9095D4900EC
:1005500009AA505A00F0A6F9681C85B201A9095DE4
:100560004A008E18F117890F8919891005AA125DA2
:10057000520009AB9A5A514308463946FFF7BAFD73
:10058000A842E2D8601C84B2102CDCD313B0F0BDBA
:100590005C1700080508090A0605090A0C0D090779
:1005A00003061312040404080804040404080404E1
:1005B00002020A08002905D0054A52690243044B89
:1005C0005A6104E0024A52698243014B5A61704702
:1005D00000100240002905D0054AD2690243044BAD
:1005E000DA6104E0024AD2698243014BDA61704762
:1005F00000100240002905D0054A92690243044BCD
:100600009A6104E0024A92698243014B9A61704701
:100610000010024070B5044600250026414840689D
:100620000C2108400546002D04D0042D05D00C2DCA
:1006300009D105E03C48206008E03B48206005E027
:100640003A48206000BF3848206000BF00BF3548EE
:100650004068F021084005462D09680034490E5ACB
:1006600031462068FFF746FD60602E48406807214C
:100670000902084005462D0A2E48465D6068F04094
:10068000A0602D480069800F800700280DD1254803
:10069000C030806A1F21890608400546AD0EA91C9E
:1006A0002648FFF727FDE06016E023480069800F29
:1006B000800701218907884203D0A0684008E060D4
:1006C0000AE01D480069800F80070121C9078842A0
:1006D00002D0A0688008E0601248006B102108403A
:1006E000102802D01048206101E0206820610D48E8
:1006F000006B8007800F002802D1A068606110E0C5
:100700000848006B8007800F012802D120686061D3
:1007100007E00448006B8007800F032801D10248DE
:10072000606170BD001002400048E80150BD01004A
:10073000FE1700081E180008002401400090D00396
:10074000002806D00649496A01221143044A516231
:1007500005E00349496A49084900014A5162704766
:100760000010024070470000F8B500250026002761
:100770000020009000240E48056A280C0090ACB2BE
:100780000098204000280FD10A4807680A4807400F
:10079000E006000E6105890E090208430646054879
:1007A000006830430349086000F008F8F8BD000015
:1007B00000F8FF1F001002400700FFFF85B0002077
:1007C000049003900290019000903348006801214A
:1007D0000843314908603048C030806A0F21C9029F
:1007E00088432D49C03188620846806A0721C902C2
:1007F00008432949C031886200BF274800680221A8
:10080000084003900498401C04900398002803D1EA
:10081000224904988842F0D11F480068022108400C
:10082000002802D00120039001E0002003900398EB
:1008300001282FD11A48006802900298C008C00011
:100840000290022102980843154908601248406846
:100850000190F0210198884301900F490198486068
:1008600008464068009007210902009888430090DC
:100870000949009848600846406880088000486040
:1008800008464068486000BF034840680C210840A3
:100890000028F9D105B0704700100240FFFF0000AA
:1008A0000020024070B50446012C13D021460B48AD
:1008B000FFF720FC054602210948FFF704FD284602
:1008C000FFF752FC02210648FFF7FBFC2846FFF722
:1008D0004BFC02E06420FFF747FC70BD50C30000F2
:1008E000000C004810B50446601E0A49884201D930
:1008F000012010BD601E0849486107210020C04347
:10090000FFF78EFD00200449886107200861002060
:10091000EFE70000FFFFFF0000E000E0704700008D
:1009200010B5064906480068FFF7E4FB0446FFF7E8
:10093000D9FF002801D000BFFEE710BDA08601004E
:100940000000002010B50D480068012108430B4944
:100950000860084640680A49084008494860084657
:10096000006B132188430549086300208860FFF766
:10097000FBFE00200349486310BD00000010024048
:100980001CB8FFF840200240002904D0026801236F
:100990001A43026003E00268520852000260704786
:1009A00002460020D3690B40002B01D0012000E05B
:1009B0000020704770B502460B4600240021002538
:1009C00000201E04350ED9B201268E403146012D7D
:1009D00002D11668314006E0022D02D1566831403E
:1009E00001E0966831401C0C0126A6403446D669C9
:1009F0003440002903D0002C01D0012000E0002069
:100A000070BDF8B50346002400260096002500209E
:100A100018460E04340ECEB200960127009EB74051
:100A20003D46022C01D1001D02E0032C00D108300C
:100A3000002A03D006682E43066002E00668AE4333
:100A40000660F8BDF0B587B004460D4600270020CB
:100A50000690002620684008400020606668032158
:100A60000903304688430646A86806436660266840
:100A700027480640E968686808432969084306432F
:100A80002660A66803210902304688430646686945
:100A90000643A6606846FFF7BDFD1E48844202D1AA
:100AA0000598069001E00298069020680121C9038C
:100AB000084000280CD02968069A5000FFF71AFB5E
:100AC00007462968069A5000FFF714FB0E4609E016
:100AD00029680698FFF70EFB074629680698FFF776
:100AE00009FB0E4628684008B04200D87F1C2068E9
:100AF0000121C9030840002806D03807460F3846B0
:100B00000549084030430746B8B2E06007B0F0BD81
:100B1000F3E9FFFF00380140F0FF00000146486A9A
:100B2000C005C00D7047CA05D20D82627047000033
:100B300010B507490748FFF73DFF002806D00548D4
:100B4000FFF7ECFFC4B2204600F0FEFC10BD000031
:100B5000050105000038014010B50446214605484E
:100B6000FFF7E1FF00BF40210248FFF719FF01280E
:100B7000F9D110BD0038014000B589B00121080548
:100B8000FFF718FD01214804FFF714FD0121880338
:100B9000FFF730FD012203210920C006FFF76FFB9C
:100BA000012206211948FFF76AFB022168460177F6
:100BB0000021817740200690012168464177C17766
:100BC00006A91248FFF708FB0820069006A909208D
:100BD000C006FFF701FB4B20C001009000200590EC
:100BE0000C20049000200390029001906946084870
:100BF000FFF728FF012207490548FFF702FF0121FF
:100C00000348FFF7C1FE09B000BD0000000C00481A
:100C1000003801400501050030B47446641E257893
:100C2000641CAB4204D3635D5B00E31830BC18471F
:100C30001D46F8E702E008C8121F08C1002AFAD1D1
:100C400070477047002001E001C1121F002AFBD14C
:100C50007047000010B505480178022000F07EFAC8
:100C600003480178032000F049FB10BD1C00002060
:100C70001D00002001460020087800024A78104339
:100C800000028A7810430002CA78104370470000BF
:100C9000F0B585B004463149E01C085C029002982A
:100CA0000300FFF7B9FF0F090C0F121D212556474E
:100CB00056565656564A560000F00CFA4AE000F0D6
:100CC000A1FB47E000F0FEF944E02449A01D085CC8
:100CD0002349087000220321084600F00FFD39E087
:100CE00001202049087035E001201F49087031E0DB
:100CF0001A49201D085C07020A46611D515C0F431A
:100D0000002514E0A01D4019801C1449085C06024F
:100D1000A01D4019C01C085C801986B20919891DE4
:100D2000481900F023F80390301D281885B2BD4201
:100D3000E8DB0FE0FFF78EFF0CE00849A01D085C20
:100D40000190E01D085C00900099019800F044FCBF
:100D500000E000BF00BF05B0F0BD00002000002093
:100D6000130000201100002012000020FEB50446F0
:100D700026786778A0780502E078401985B2304679
:100D800000F088F901900198400007494018407828
:100D9000B84201D00020FEBD2A46211D304600F099
:100DA00037F800900098F6E7D217000870B50446AF
:100DB0000D462A462146122000F068FA0646012E0A
:100DC00000D170BD0020FCE7F8B504460D46294669
:100DD000204600F0CFFA07463946182000F0BEF949
:100DE0000646012E00D1F8BD0020FCE7F8B5044608
:100DF0000D462946204600F0C3FA0746394607202B
:100E000000F07CFA0646012E00D1F8BD0020FCE778
:100E1000F8B505460E4617462846122D3BD00EDC87
:100E2000072826D006DC012811D0022815D0032877
:100E300055D118E0102822D0112850D125E01638BD
:100E40000300FFF7E9FE052E343A40464C003946D0
:100E5000304600F080F8044642E03946304600F063
:100E600088F804463CE03946304600F04EF8044627
:100E700036E039463046FFF7B9FF044630E03946E0
:100E8000304600F0D5F804462AE03946304600F0F6
:100E90002AF8044624E039463046FFF787FF044627
:100EA0001EE03946304600F0A5F8044618E0394601
:100EB000304600F07BF8044612E039463046FFF732
:100EC00083FF04460CE03946304600F081F80446C2
:100ED00006E03946304600F0BDF8044600E000BFA9
:100EE00000BF2046F8BDF8B504460D462946204609
:100EF00000F040FA07463946112000F02FF9064667
:100F0000012E00D1F8BD0020FCE7F8B506460F46DB
:100F10003946304600F034FA0546012D11D9FFF765
:100F2000FBFAFFF767FAFF212D3169430846FFF707
:100F30002FF9FFF76BFA7D200001FFF729F9FFF782
:100F4000ADFA2946032000F0D9F90446012C00D15E
:100F5000F8BD0020FCE770B504460D462A46214640
:100F6000012000F05BF90646012E00D170BD002083
:100F7000FCE7F8B506460F463946304600F0FAF968
:100F80000546002D04D100210846FFF7C9F903E00A
:100F900001210846FFF7C4F92946022000F0DEF8D7
:100FA0000446012C00D1F8BD0020FCE7F8B504464A
:100FB0000D462946204600F0DDF907463946172040
:100FC00000F0CCF80646012E00D1F8BD0020FCE769
:100FD000F8B504460D462946204600F0CBF90746F1
:100FE0003946192000F0BAF80646012E00D1F8BDA6
:100FF0000020FCE7F8B506460F463946304600F0BB
:10100000BCF90546002D04D0012D03D0022D03D1DB
:1010100001E002E001E000E000BF00BF2946162029
:1010200000F0D0F80446012C00D1F8BD0020FCE708
:10103000F8B504460D462946204600F0A1F90746BA
:101040003946102000F05AF90646012E00D1F8BDAD
:101050000020FCE7F8B504460D462946204600F07E
:1010600089F9074639461A2000F078F80646012E1D
:1010700000D1F8BD0020FCE730B502460020002377
:1010800005E01578521C2C18E0B25C1CA3B28B4210
:10109000F7DB30BD70B5054600F012F806460024B7
:1010A00007E060000549085CA84200D103E0601C2D
:1010B000C4B2B442F5DB00BF204670BDD2170008B1
:1010C0001620704710B5002422460321022000F0AC
:1010D00015FB10BD10B500240B480078002808D17E
:1010E0000021204600F00AFAC4B201200649087027
:1010F00004E00121204600F001FAC4B22246032197
:10110000002000F0FBFA10BD14000020FFF728F9C2
:10111000FFF75CF9FFF7DAF8FFF72EFD00F046FA6B
:10112000FFF7FEFB18E000F05DFAFFF701FD00F0AD
:101130002FF9002806D0012805D0022804D0032862
:1011400008D106E007E006E001210846FFF71EF996
:1011500001E000E000BF00BFE5E7000070B5044615
:101160000D46002616480078012800D170BD2146A2
:10117000304600F0C3F906460121304600F0BEF9C2
:1011800006460021304600F0B9F9064601213046F6
:1011900000F0B4F90646002D05D10021304600F0DC
:1011A000ADF9064604E00121304600F0A7F90646F5
:1011B00032460321072000F0A1FA0120D6E7000003
:1011C0001000002070B504460E4600251248007835
:1011D000012800D170BD2146284600F08FF9054650
:1011E0000421284600F08AF905460021284600F02F
:1011F00085F905460121284600F080F9054631466B
:10120000284600F07BF905462A460321072000F016
:1012100075FA0120DEE7000010000020F7B5064651
:101220001446002718480078012800D1FEBD314639
:10123000384600F063F907460021384600F05EF9B1
:1012400007462546E017000E40190004010E3846F7
:1012500000F054F90746E017000E40190012000292
:10126000201AC1B2384600F049F9074622463846EE
:10127000019900F031F907463A460321072000F0B2
:101280003DFA0120D2E7000010000020F7B5064625
:101290001446002718480078012800D1FEBD3146C9
:1012A000384600F02BF907460321384600F026F9AE
:1012B00007462546E017000E40190004010E384687
:1012C00000F01CF90746E017000E4019001200025A
:1012D000201AC1B2384600F011F9074622463846B6
:1012E000019900F0F9F807463A460321072000F07B
:1012F00005FA0120D2E700001000002070B5054675
:101300000C4600261A480078012800D170BD2946F5
:10131000304600F0F3F806460221304600F0EEF8C1
:1013200006460021304600F0E9F806460421304622
:1013300000F0E4F80646210E304600F0DFF80646DD
:101340002002010E304600F0D9F806462004010EB6
:10135000304600F0D3F80646E1B2304600F0CEF851
:10136000064632460321072000F0C8F90120CDE7E8
:10137000100000200246107870470246107870472F
:1013800010B503460C461846FFF774FC10BD00006C
:10139000014800787047000013000020F0B50546B2
:1013A0000E4613462A463446002D01D0002E01D1A8
:1013B0000020F0BDA24202D9E018904208D20021DC
:1013C00003E0605C5054481C81B29942F9DB09E0AB
:1013D000194605E0481E205C4F1ED055481E81B2BC
:1013E0000029F7DC2846E4E701460022002900D165
:1013F0007047002200E0521C0B78491C002BFAD1E8
:101400001046F5E770B5002425A0FFF7EDFF85B283
:101410002A4623A1204600F05FF8C4B222A0FFF7BD
:10142000E3FF85B22A4620A1204600F055F8C4B259
:1014300022A0FFF7D9FF85B22A4620A1204600F05E
:101440004BF8C4B21FA0FFF7CFFF85B22A461DA1FB
:10145000204600F041F8C4B21CA0FFF7C5FF85B2DA
:101460002A461AA1204600F037F8C4B216A0FFF7AA
:10147000BBFF85B22A4614A1204600F02DF8C4B265
:1014800014A0FFF7B1FF85B22A4612A1204600F052
:1014900023F8C4B222460321012000F02FF970BDC9
:1014A0007B2270223A220000667137796978746A6B
:1014B000337A726D7277783600000000222C227623
:1014C000223A2200312E302E30000000222C226DD4
:1014D000223A00007D000000F8B504460E4615468D
:1014E000054807192A4631463846FFF757FF601965
:1014F00084B22046F8BD00005C000020024B1A18A0
:101500001170431C98B270475C0000200B490968B9
:101510000B4A126891420FD008490A6809498A4269
:1015200002D31739054A116004490968087803494C
:101530000968491C014A1160704700000C00002036
:10154000080000205600002012490968124A12685B
:10155000891A01291CD0104909680E4A1268914263
:1015600006D90D4909680B4A1268891A17290FD242
:1015700009490A6809498A4202D31739064A1160A3
:1015800005490968087004490968491C024A116044
:10159000704700000C0000200800002056000020CA
:1015A00010B504462046FFF7D7FA10BD0548064996
:1015B000086006490860002005490870FF200549B9
:1015C000087070473F000020080000200C00002039
:1015D0001000002013000020002802D1002900D0B4
:1015E00000BF704770B50024002509E0FFF78EFFAB
:1015F00036490A880988491C344B19803449885473
:10160000324800881F2803D200F09AF80028EDDC49
:101610002E480088072800DA70BD3FE02C48005DA6
:10162000552802D0601C84B238E02949601C085C4F
:10163000AA2802D0601C84B230E02549A01C085CB6
:10164000002802D0A01C84B228E02149201D085C9B
:101650000502601D085CC01D401985B2262D02D907
:10166000E01C84B21AE019480088001BA84200DA86
:1016700019E06A1E91B2164A1019FFF7FDFC6119B4
:10168000491E134A515C884202D0E01C84B205E036
:101690002046FFF7FDFA601984B200BF0B480088AE
:1016A000001B0728BADA00BF08480088001B07495A
:1016B000088008460088002806DD0548011903480F
:1016C00002880348FFF76AFE00BFA5E70400002078
:1016D0002000002070B504460D46002C01D0002DDE
:1016E00000D170BD03E02078FFF75AFF641C284644
:1016F000691E8DB20028F6D100BFF2E7F8B50546A5
:101700000E461446002755200C490870AA20487040
:1017100008468670C570201208714C71E01D84B2B5
:10172000601E81B20548FFF7A7FC0746601E03490B
:101730000F5421460148FFF7CDFFF8BD56000020A9
:101740000448006804490968884201D001207047B4
:101750000020FCE7080000200C000020F700060134
:1017600026014A015D018801B801EE010B024B021E
:101770009302BA0210037003DC03160497042605D3
:1017800001002A02F700060126014A015D018801D5
:10179000B801EE010B024B029302BA021003700370
:1017A000DC0316049704260501000000F70006017B
:1017B00026014A015D018801B801EE010B024B02CE
:1017C0009302BA0210037003DC0316049704260583
:1017D00001000100020103020404060407020802DA
:1017E00009040A020B010C040D050E020F0210027F
:1017F0001101120316041701180119011A01010041
:1018000006000100010001000100010001000200CA
:1018100004000800100040008000000100020000E9
:101820000000010203040000481800080000002026
:1018300020000000340C0008681800082000002078
:1018400070020000440C00080048E801000000009D
:101850000000000000000000000000000000000088
:0818600000000000010100007E
:04000005080000C12E
:00000001FF
